:020000040800F2
:10000000000400206101000801120008011200082C
:100010000112000801120008011200080112000874
:100020000112000801120008011200083131000815
:100030000112000801120008011200080112000854
:100040000112000801120008011200080112000844
:100050000112000801120008011200080112000834
:100060000112000801120008011200080112000824
:100070000112000801120008011200080112000814
:100080000112000801120008011200080112000804
:1000900001120008011200080112000801120008F4
:1000A00001120008011200080112000801120008E4
:1000B0009130000801120008011200080112000826
:1000C00001120008011200080112000801120008C4
:1000D00001120008B13C0008913C00080112000820
:1000E00001120008011200080112000801120008A4
:1000F0000112000801120008011200080112000894
:100100000112000801120008011200080112000883
:100110000112000801120008011200080112000873
:100120000112000801120008011200080112000863
:100130000112000801120008011200080112000853
:100140000112000801120008011200080112000843
:100150000112000801120008011200080112000833
:1001600072B6224880F30988022080F31488BFF316
:100170006F8F01F085F803F0DBFA1D481D491E4A18
:1001800091423CBF41F8040BFAE71C49174A9142DF
:100190003CBF41F8040BFAE719491A4A1A4B9A4234
:1001A0003EBF51F8040B42F8040BF8E70020174952
:1001B000174A91423CBF41F8040BFAE701F028F8D6
:1001C00001F056F8134C144DAC4203DA54F8041BFA
:1001D0008847F9E705F07CFC104C114DAC4203DA7E
:1001E00054F8041B8847F9E701F03AB800080020EA
:1001F0005555555500000020000400200004002043
:10020000B884000800080020540E0020580E00207A
:10021000103600206001000860010008600100083D
:100220006001000800000000000000000000000065
:100230002DE9F04FC1F80CD0D0F80CD0BDE8F08F0C
:10024000002383F311882846A047002000F090FD8A
:1002500000F016FA00DFFEE70000000000000000DA
:1002600080EA010C1CF0030F37D110F0030C20F0D2
:10027000030021F0030150F8042B08BF51F8043BA0
:100280000ED08CF0030C6FF07F434FEACC0C23FAB6
:100290000CFC51F8043B42EA0C0243EA0C0300BF99
:1002A000A2F1013C9A4201BF2CEA020C1CF0803FF3
:1002B00050F8042B51F8043BF2D04FEA02604FEAA9
:1002C0001222012828BFB0EB036F08BF1B0AF4D02D
:1002D00003F0FF03000EC01A704710F0030F0AD09E
:1002E00010F8012B11F8013B012A28BF9A42F4D0E3
:1002F000A2EB030070474DF8045D50F8042B01F0A9
:10030000030521F0030151F8043B022D26D04DD8FE
:1003100022F07F45B5EB132FA2F1013C2CEA020C31
:100320000DD11CF0803C08BF51F8043B0AD185EA8E
:100330000205B5EB036F0CD150F8042BE8E74FEA48
:1003400013235BE03CF07F4C54D10B784FEA1265ED
:1003500054E04FEA126503F0FF034FE04FEA024515
:10036000A2F1013C4FEA15452CEA020CB5EB134F04
:1003700018D11CF0803C08BF51F8043B07D185EA36
:100380000205B5EB034F09D150F8042BE6E75FEA0D
:100390000C4C2FD10B884FEA12452FE04FEA034354
:1003A0004FEA12454FEA134328E000BF02F0FF0571
:1003B000B5EB136FA2F1013C2CEA020C0DD11CF03D
:1003C000803C08BF51F8043B0AD185EA0205B5EB31
:1003D000032F0AD150F8042BE8E74FEA13630DE02E
:1003E00012F0FF0F06D051F8043B4FEA122523F01C
:1003F0007F4303E04FF0000020BC704705F0FF0290
:1004000003F0FF00012828BF904204BF2D0A1B0AF9
:10041000F4D0A2EB000020BC704700BF0000000039
:1004200010B4202383F31188037F072B0ED8DFE855
:1004300003F0270D0D2308040D08026A93680133A9
:10044000936090E80C001A60026853604FF0FF342C
:10045000002281680D4B046202771B689A688A4209
:10046000FBD25A680021036042601060586081F33B
:1004700011885DF8044B7047036A00221A60E5E7B3
:10048000002383F311885DF8044B7047302E002061
:10049000FEE700BF000000000000000000000000B8
:1004A0000D4AF0B410689469056801270026A16818
:1004B0002B466A60156007779061267700E01B681D
:1004C0009A688A42FBD85A682146236062601460A9
:1004D0005C60F0BCFFF7ACBE302E002000000000D6
:1004E000202383F31188024602E08B4207D01A468C
:1004F00013688342F9D1002383F3118870470B6896
:100500001360002383F31188704700BF00000000D0
:100510000346202282F31188826800201AB100234A
:1005200083F311887047054A01209269916B9A60A4
:10053000D9609363002383F311887047302E002025
:1005400030B40246202181F31188837F0024013BCF
:10055000DBB2837784F3118813B9047F0F2C01D0A9
:1005600030BC7047447F04F00304012C0FD0022CF0
:10057000F6D105694469006C256115696C6181F3E8
:10058000118801681160026083F31188E8E743690C
:10059000016930BC19610269536103F0D1B900BF30
:1005A00010B5202383F31188074B04699C4217BFC1
:1005B000A37F00240133A377002383F31188FFF77F
:1005C000BFFF204610BD00BF302E002000000000FD
:1005D0000E4B0F495A688368096FD31AC26830B44A
:1005E000D0E904455B1A01324168E418C260026830
:1005F00045F100058B4288BF43609342C0E9044542
:1006000030BC836038BF0360704700BF001000E05B
:10061000302E00200000000000000000000000005C
:10062000F8B5202383F31188124A1068946983680F
:10063000A1688B4203D2002383F31188F8BD0568BB
:10064000012700266A602B460777156090612677A0
:1006500000E01B689A689142FBD95A6821462360E2
:10066000626014605C60FFF7E3FD002383F3118890
:10067000F8BD00BF302E0020000000000000000088
:10068000FFF70EBF000000000000000000000000A7
:10069000044B1A689B6992689B689A4200D870471D
:1006A000FFF7FEBE302E002000000000000000001A
:1006B00010B5202383F31188084B9B69DC6B996884
:1006C0008C4201D0814200D29860D863FFF7E0FFEE
:1006D000002383F31188204610BD00BF302E002078
:1006E000144B70B49E69846805460162B068844208
:1006F0000CD800222A771B689A689442FBD95A6862
:100700002B606A6015605D6070BC70471A460021FE
:100710003177126891688842FBD950680124706073
:100720003260066056602C77314628469D6170BC69
:10073000FFF77EBD302E002000000000000000000A
:1007400008B5202383F3118883680133002B83606D
:1007500003DD002383F3118808BD034600680021F0
:1007600002681A605360FFF7BBFF002383F3118810
:1007700008BD00BF000000000000000000000000F5
:100780002DE9F84F904699460D4603F021F90446AD
:10079000002834D0202383F311881A4FA5F12401B7
:1007A0000A9A00EB010C7B69C0F80CC040F801907C
:1007B000CCF804204FF00102DFF84CB0002500F126
:1007C000280600F1240E4FF0020ACCF820B029468A
:1007D000C0F8088007614361C0F83C8080F81CA025
:1007E00085634563856182771861C4F824E0627788
:1007F0008662C6627861FFF773FF85F31188204631
:10080000BDE8F88F302E00204102000800000000F3
:100810002DE9F04799460446202383F31188194EA9
:10082000243947187369DFF860A0C76040F8019069
:100830000899002500F128094FF0010C00F1240E61
:100840004FF002087960C7F820A02946826006614F
:100850004361C26380F81C8080F81EC045778563C1
:10086000456385611861C0F824E0C0F82890C0F89D
:100870002C907061FFF734FF85F311882046BDE8A6
:10088000F08700BF302E0020410200080000000069
:10089000074B30B41A6899691468012508776360BA
:1008A00015771C60104630BC9A61FFF7C1BC00BFD1
:1008B000302E0020000000000000000000000000BA
:1008C00010B5202383F311880B4CA269134653F80B
:1008D000280F984208D001680D2491624B600022D5
:1008E000047782F3118810BD0E20FFF7D1FFA269B3
:1008F000906A02F12803EEE7302E0020000000008D
:10090000202383F311888368013B002B836004DB81
:100910000020002383F311887047034610B5084C6C
:100920000520A26913625968136051600A605A6019
:10093000FFF7AEFFA369186A002383F3118810BD87
:10094000302E002000000000000000000000000029
:1009500038B50446202383F31188037F0F2B07D07B
:10096000084B426A9B6909201A606362FFF790FF97
:10097000256A002383F311882046FFF7E1FD28460E
:1009800038BD00BF302E0020000000000000000035
:1009900010B4044600228168074B02771B689A68EE
:1009A0008A42FBD25A6820462360626014605C6011
:1009B0005DF8044B704700BF302E0020000000009F
:1009C00042690346806910B582421DD09868541C64
:1009D00001305C619860117059691A6991420CD2BA
:1009E0001A6893420ED011680024196010464B60BB
:1009F0001462FFF7CDFF204610BDDA685A611A680D
:100A00009342F0D1002010BD98680028DED06FF02E
:100A1000030010BD00000000000000000000000006
:100A20000E4B70B520229C6982F3118800F12805D5
:100A3000067F2562C26A0E2E216325606260146003
:100A4000C46207D00C20FFF723FF206A002383F342
:100A5000118870BDFFF79CFFF4E700BF302E002027
:100A6000436B027F19430A2A41630AD00B2A00D044
:100A70007047036A19408B42FAD100230362FFF7E3
:100A800087BF036A1942F8D1704700BF0000000019
:100A900070B504680646A0420D460DD0E3682B43AE
:100AA000E36015B12269134203D06068A168FFF7C3
:100AB000D7FF2468A642F1D170BD00BF000000003E
:100AC000134A70B52023946983F31188A36BD3B1C3
:100AD00000260BE0956B1168104619604B609A6018
:100AE000DD609363FFF754FFA36B43B11A68D968C5
:100AF0009342A163EED19E60A36B002BF6D1E36B12
:100B0000A360FFF7C5FD002383F3118870BD00BF0C
:100B1000302E002000000000000000000000000057
:100B200030B40446114A2568C3689069AC428363B7
:100B300017D0C16B4BB11A68934203D092689142AF
:100B400038BF1146DB68002BF5D1AA6B2B6881609A
:100B5000236028465C60A560E260AC6330BCFFF7B0
:100B600017BF0023A36030BC704700BF302E0020A9
:100B7000174B70B59D69202383F311880468C368FF
:100B8000A042AB631DD0E96B4BB11A68934203D00E
:100B90009268914238BF1146DB68002BF5D10346BD
:100BA0002268A66B2046A9601A6053609C60DE60D4
:100BB000A363FFF7EDFEFFF76BFD002383F31188BE
:100BC00070BD00238360002383F3118870BD00BFD4
:100BD000302E002000000000000000000000000097
:100BE000F8B582682F4B9C69002A55D0A16893689C
:100BF0000546994206D9137F9160062B33D0072B07
:100C00001DD09BB12B4603E09968A268914202D3A4
:100C10001B689D42F8D15A682360626014605C6072
:100C200025620620BDE8F840FFF732BE92E80A00D0
:100C30001960104612685360FFF7AAFEE2E71768D2
:100C40005068166A076017683346786002E0986853
:100C5000884202D31B689E42F9D1596813605160E3
:100C60000A605A60CEE717685068166A076017680E
:100C70003346786002E09868884202D31B689E423F
:100C8000F9D15968136051600A605A60B268A1686E
:100C900093688B42AFD3B5E7A36B8460C360A06356
:100CA000F8BD00BF302E0020000000000000000052
:100CB00008B5202383F31188FFF792FF002383F305
:100CC000118808BD000000000000000000000000C6
:100CD000836802460133002B836000DD70470368A0
:100CE00010B41968002411604A601C6218465DF84F
:100CF000044BFFF74DBE00BF0000000000000000E5
:100D000070B5856881600135002D0CDC04466FF0FC
:100D1000010660680135436863601C60FFF738FEB8
:100D2000012D0662F5D170BD00000000000000003A
:100D300038B50E4B9C69636A04F124059D4220621C
:100D400007D01A6818466262FFF722FE636AAB4258
:100D5000F7D1637F9B0704D1226963691A61226915
:100D600053610F20BDE83840FFF792BD302E0020C0
:100D7000202383F31188FFF7DBBF00BF00000000D2
:100D80001C4B70B4DA6982420FD0026841681C3390
:100D90000A60026800249A425160C46003D001894D
:100DA00013890B44138170BC7047194615680020E5
:100DB00041F81C5F8D426960D06016D04FF08040D2
:100DC000416A1689DC8C2A8989B2B3180A1B9BB246
:100DD00092B293422B81E6D99B1A9BB2012B98BF0A
:100DE00002230B449BB24363DDE74FF08043D8609E
:100DF000D9E700BF302E00200000000000000000F6
:100E0000F0B51E4E4FF08047B6465EF81C4F7D6A27
:100E1000012998BF022174450361C260ABB21DD0A5
:100E20001944F38C89B22289CB1A9BB2934238BF02
:100E30007963934205D924689B1A22899BB29A420E
:100E4000F9D34FF6FF716268046042601060606021
:100E500003812289D31A2381B184F0BDCA1892B2CA
:100E60004FF0000E0225F384F061306204604460AC
:100E700001817A63C7F810E0FD60F0BD302E0020DC
:100E80004FF6FF7330B5994287B012D005460C4C2F
:100E900001A8A3690B4AFFF7B3FF2846FFF7F8FC48
:100EA000049B13B101A8FFF76BFFA369186A07B091
:100EB00030BDFFF7EDFC024CA369186A07B030BDE6
:100EC000302E002021040008000000000000000077
:100ED00003468068421E002A9A6001DB00207047AA
:100EE00010B461B1094A0520926913625C6882E816
:100EF000180022605A605DF8044BFFF7C1BF98608C
:100F00005DF8044B4FF0FF30704700BF302E0020DB
:100F100070B5202304460E4683F311881146103025
:100F2000FFF7D6FF054680B9E368626819680433A5
:100F30009342E36028BF2368316004F11C0028BF9E
:100F4000E360FFF7C5FEFFF7A3FB002383F31188DF
:100F5000284670BD000000000000000000000000F6
:100F600070B5202304460E4683F3118811461C30C9
:100F7000FFF7AEFF054678B9A2686168131D8B4282
:100F8000A36028BF2368166004F1100028BFA36087
:100F9000FFF79EFEFFF77CFB002383F311882846B2
:100FA00070BD00BF00000000000000000000000055
:100FB00069B10246074B10B49B694468042083E87A
:100FC0001400236053605DF8044BFFF759BF4FF0E6
:100FD000FF307047302E00200000000000000000AD
:100FE0002DE9F04F044683B0894693461D46D0F85C
:100FF0001C80202787F311880026B2460197B8F19C
:10100000000F07D02046C04704E020462946FFF7DE
:10101000CFFFD0B9A768002FF7D0A269A368511CF1
:10102000013BA161A360137809F8013B2369A26920
:101030009A4224BFE368A3618AF311880136B3455D
:1010400005D0019B83F31188D9E787F311883046D7
:1010500003B0BDE8F08F00BF0000000000000000FA
:1010600070B520230E46044683F31188C3693BB153
:10107000984705E020463146FFF79AFF002813DB2A
:10108000A568002DF6D0A169A36825694A1C013B1B
:10109000AA42A36028BFE368A261087828BFA361C1
:1010A000002383F3118870BD85F3118870BD00BFE4
:1010B00008B5202383F311884FF08043596A411A01
:1010C00089B211B10820FFF7DBFE002383F31188FA
:1010D00008BD00BF0000000000000000000000008C
:1010E00008B50146202383F311880820FFF7C8FEC6
:1010F000002383F3118808BD0000000000000000F9
:1011000010B5EFF30584C4F308041CB1002383F386
:10111000118810BDFFF7BCFA84F3118810BD00BF21
:10112000EFF30583C3F308031BB9202383F311886E
:101130007047202383F31188704700BF0000000030
:10114000C20710B410D52A4A116891423ED000233C
:10115000096801339142FBD14C688C4232D06468FB
:10116000013B9442FBD16BBB830712D5204A144646
:1011700054F81C1FA1422FD0002309680133A1425B
:10118000FBD1126A8A421DD05268013BA242FBD1B8
:10119000C3B910F0040012D0154A1369934221D04C
:1011A00000201B6901309342FBD15969994209D053
:1011B000496901389142FBD1003018BF01205DF828
:1011C000044B704701205DF8044B7047546894420B
:1011D00018BF0023C3D1C7E7126AA24218BF002379
:1011E000D2D1D6E7596900209942E1D1E7E700BFA3
:1011F000302E002000000000000000000000000071
:10120000FEE700BF0000000000000000000000003A
:10121000F0B4114E002506F1800796E81A00A342AB
:101220000DD21A46043951F8040F42F8040BA242B9
:10123000F9D3DA43144424F0030404342344F26859
:10124000934203D243F8045B9342FBD31036BE4271
:10125000E3D3F0BC704700BFC0700008000000007E
:10126000FEE700BF000000000000000000000000DA
:10127000704700BF000000000000000000000000F8
:10128000704700BF000000000000000000000000E8
:10129000024B00221B605B609A607047640900206B
:1012A000044A054B002112605260916099601B60F6
:1012B0005B607047640900205409002000000000B2
:1012C000024B00221B605B609A607047640900203B
:1012D000024B00221B605B609A607047140A00207A
:1012E000024B00221B605B609A607047140A00206A
:1012F000024B00221B605B609A607047140A00205A
:101300002DE9F041844D854BAA6982B094684FF471
:10131000A471671C3A4600938148824BFFF778FA24
:10132000814E824B04F1020830604FF4A4714246B2
:1013300000937F487F4BFFF76BFA70607E48FFF7A2
:10134000B7FCAB6901209968611AB1FA81F14909CA
:1013500001F0CEFF10B102B0BDE8F081C820FFF768
:10136000BFFEAB6902209968791AB1FA81F1490987
:1013700001F0BEFF0028EED17048FFF799FCAB6981
:1013800003209968791AB1FA81F1490901F0B0FF97
:101390000028E0D1C820FFF7A3FEAB6904209968BC
:1013A000C1EB0801B1FA81F1490901F0A1FF002860
:1013B000D1D16248FFF7DCFBAB6905209968791A47
:1013C000B1FA81F1490901F093FF0028C3D1C82087
:1013D000FFF786FEAB6906209968791AB1FA81F1A8
:1013E000490901F085FF0028B5D1FFF769FBAB691A
:1013F00007209968611AB1FA81F1490901F078FF73
:101400000028A8D101F0F4FE4D4B4FF4A4710093D5
:101410003A46444B4248FFF7FBF94A4B30604FF4E1
:10142000A47100934246434B4148FFF7F1F97060C5
:101430004148FFF73DFCAB6908209968611AB1FA91
:1014400081F1490901F054FF002884D1C820FFF739
:1014500047FEAB69092099687B1A5942594101F04E
:1014600047FF00287FF477AF3448FFF721FCAB69D2
:101470000A209968C1EB070CDCF1000141EB0C017B
:1014800001F036FF00287FF466AFC820FFF728FE82
:10149000AB690B209968C1EB080EDEF1000141EB4E
:1014A0000E0101F025FF064600287FF454AF2023EB
:1014B00083F311882148FFF733FBFFF7E9F886F340
:1014C0001188AB690C2099687E1A7142714101F054
:1014D0000FFF00287FF43FAFC820FFF701FEAB6984
:1014E0000D2099687A1A5142514101F001FF0028FC
:1014F0007FF431AFFFF7E4FAAB690E209968631A05
:101500005942594101F0F4FE00287FF424AF02B0A3
:10151000BDE8F04101F06CBE302E002040710008A3
:10152000A82F002051150008C00E002044710008AB
:10153000F0300020711500085409002064090020D3
:1015400008830008B08400080000000000000000CC
:1015500010B5064C6420FFF7C3FD2046FFF7A8FB3B
:101560002046BDE81040FFF703BB00BF5409002030
:1015700010B5064C4FF49670FFF7B2FD2046FFF70A
:1015800097FB2046BDE81040FFF7F2BA640900203F
:1015900070B5294E82B0B36928489C68FFF788FB74
:1015A000274B621C00934FF4A471264B2648FFF78B
:1015B0002FF9264D264B2860A21C00934FF4A471EE
:1015C000204B2448FFF724F9234B6860E21C00936A
:1015D0004FF4A4711B4B2148FFF71AF9204BA86068
:1015E000221D00934FF4A471164B1E48FFF710F90B
:1015F0001D4B4FF4A471621DE86000931B48114B12
:10160000FFF706F928610D48FFF7B2FA01F0F0FD87
:10161000B36901209968611AB1FA81F1490901F0B1
:1016200067FE08B102B070BD1149022002B0BDE8EA
:10163000704001F035BE00BF302E0020640900204C
:101640004C71000851170008A82F0020C00E002080
:1016500008830008F0300020B084000838320020F1
:10166000407100088033002044710008C834002015
:1016700048710008000000000000000000000000A9
:10168000F0B5274F274EBB69274D9A68274983B08D
:101690002B460091053A30464FF4A471FFF7B8F895
:1016A000BB69234C9A68234920602B460091043A79
:1016B00006F5A4704FF4A471FFF7AAF8BB691E49A0
:1016C0009A6860602B460091033A06F524704FF447
:1016D000A471FFF79DF8BB6918499A68A0602B4672
:1016E0000091023A06F576704FF4A471FFF790F876
:1016F000BB6913499A68E060013A2B46009106F5F0
:10170000A4604FF4A471FFF783F8206101F070FD2D
:101710000C49012003B0BDE8F04001F0C1BD00BF9D
:10172000302E0020A82F0020711700084C710008EF
:10173000C00E002008830008B08400084071000833
:10174000447100084871000800000000000000001B
:1017500038B50546054C2046FFF7AAFA287801F06F
:10176000DFFD2046BDE83840FFF702BA64090020DB
:10177000007801F0D5BD00BF0000000000000000AF
:1017800010B504460348FFF7BBF82078BDE81040C9
:1017900001F0C6BD140A0020000000000000000097
:1017A00008B5202282F311888368002B05DDFEF73F
:1017B0006FFF002383F3118808BDFFF789FAFEF756
:1017C00067FF002383F3118808BD00BF00000000FD
:1017D00008B56420FFF784FC202383F311880448B4
:1017E000FFF776FAFEF754FF002383F3118808BD54
:1017F000140A0020000000000000000000000000AB
:10180000F0B587B003AD0024039504950594202618
:1018100086F3118828462146FFF772FAFEF738FF53
:1018200084F3118886F3118805990120A142CCBF69
:101830000021012101F05CFD074618B184F31188F5
:1018400007B0F0BD80F311883F4B4FF4A4719B6942
:101850003E489A683E4B013A0095FEF7D9FF3D4B52
:1018600018602846FFF74CF886F311880599022086
:101870000029CCBF0021012101F03AFD18B187F306
:10188000118807B0F0BD80F3118886F31188059B9D
:10189000002B23DDFEF7FCFE002484F311882027B3
:1018A00087F3118805990320A142D4BF00210121AB
:1018B00001F01EFD06460028C0D180F3118887F391
:1018C000118805990420A1F10101B1FA81F14909BA
:1018D00001F00EFD30B186F31188B1E72846FFF71D
:1018E000F7F9D7E780F3118887F31188059B002B60
:1018F00023DDFEF7CDFE002484F31188202686F335
:10190000118805990320A142D4BF0021012101F0D3
:10191000EFFC0546002891D180F3118886F31188E9
:1019200005990520A1F10101B1FA81F1490901F000
:10193000DFFC30B185F3118882E72846FFF7C8F94C
:10194000D7E780F311887BE7302E0020A82F0020F6
:10195000A1170008C00E00200000000000000000D9
:1019600010B51E4A82B09269002392684FF4A471A8
:10197000013200931A481B4BFEF74AFF1A4C1B4BCF
:10198000186005F085F821680120091BB1FA81F182
:10199000490901F0ADFC08B102B010BDA1680220F8
:1019A000B1FA81F1490901F0A3FC0028F4D105F056
:1019B0006FF821680320091BB1FA81F1490901F090
:1019C00097FC0028E8D1A1680420B1FA81F1490907
:1019D00002B0BDE8104001F08BBC00BF302E0020EB
:1019E000A82F0020F1190008140A0020C00E0020C2
:1019F00010B5044C2046FEF783FF2046BDE810409A
:101A0000FEF79EBE140A0020000000000000000047
:101A1000F0B5202583B085F31188554C0021204670
:101A2000FFF756FA0023014683F31188A1F1FF3135
:101A3000B1FA81F10120490901F05AFC08B103B063
:101A4000F0BD21680220091BB1FA81F1490901F0BA
:101A50004FFC0028F3D1A1680320B1FA81F14909B4
:101A600001F046FC06460028E9D1424B4FF4A47130
:101A70009B6941489A68414B013A0096FEF7C8FEBF
:101A80003F4B186085F311884FF47A712046FFF7B9
:101A90001FFA074686F3118801F0AAFBB7FA87F10F
:101AA0000420490901F024FC0028C8D12168052040
:101AB000091BB1FA81F1490901F01AFC0028BED1D5
:101AC000A1680620B1FA81F1490901F011FC06462E
:101AD0000028B4D101F07CFB85F311884FF08043DE
:101AE0005F6A86F311884126304601F019FC85F3C0
:101AF000118864211E48FFF7EBF90023014683F3A8
:101B00001188A1F1FF31B1FA81F10720490901F0F3
:101B1000EFFB002893D121680820091BB1FA81F15D
:101B2000490901F0E5FB002889D1A1680920B1FA33
:101B300081F1490901F0DCFB0136F6B200287FF49F
:101B40007EAF462ED0D10A200E4901F0A9FB002815
:101B50007FF475AFBFB207F5FA7107F5FC7289B271
:101B600092B20B2003B0BDE8F04001F071BB00BFA2
:101B7000140A0020302E0020A82F0020D1170008C2
:101B8000C00E0020487100080000000000000000A6
:101B9000F0B54B4D4B4FAB6983B09A684FF4A471CD
:101BA0000532494B49480097FEF732FEAB69484C75
:101BB0009A68484B2060013200934FF4A471424B65
:101BC0004548FEF725FEAA69444B92684FF4A4717C
:101BD00060600332009342483B4BFEF719FEAA694E
:101BE000404B92684FF4A471A060043200933E48C9
:101BF000354BFEF70DFEAA693C4B92684FF4A47179
:101C00000232E06000933A482F4BFEF701FE20615C
:101C10003848FEF795FD3748FEF792FD3548FEF748
:101C20008FFD3448FEF78CFD3248FEF789FD01F048
:101C3000DFFA0120304901F033FB064608B103B05A
:101C4000F0BDAB694FF4A4719A6820480532009743
:101C50001D4BFEF7DDFD2023206083F31188254C0A
:101C60000225274602E0012D0ED00125A36801338D
:101C7000002BA360F7DC386803685F603B60FEF709
:101C800087FE012D0662F0D1FEF702FD002585F3E7
:101C9000118801F0ADFA202383F31188A168022096
:101CA000A1F10101B1FA81F1490901F021FB18B953
:101CB00080F3118803B0F0BD85F3118803B0F0BD47
:101CC000302E00204471000881170008A82F002042
:101CD000C00E002040710008F0300020B0840008E1
:101CE0003832002008830008803300204C7100083F
:101CF000C8340020140A00204871000800000000C9
:101D00002DE9F04F474E484DB369DFF834919A689A
:101D1000464983B04B460091043A28464FF4A471DB
:101D2000FEF776FDB369DFF81C819A684049A5F596
:101D3000A474C8F804004B460091053A20464FF4BD
:101D4000A471FEF765FDB3693A499A68C8F80000C6
:101D50004B460091013A05F576704FF4A471FEF7F9
:101D600057FDB36934499A68C8F810000091023AE7
:101D700005F524704B464FF4A471FEF749FD20226F
:101D8000C8F80C0082F31188B36971699B68DFF8A9
:101D9000B8C0A3F1030ADFF8B4E005F5A473002787
:101DA00005F51B7BC4F898A2C4F8CCA2C4F8B49380
:101DB000022005F5B6794FF0010A05F5B875C4F8AB
:101DC000A062C4F89CB2C4F8B8C3C4F8D4E384F8E1
:101DD000AC02C4F8A41284F8AD72C4F8C872C4F896
:101DE000C472C4F8A87284F8AEA20B617361C8F81B
:101DF0000830C4F8B492C4F8B852C4F8BC5287F39F
:101E00001188D8F8080082F31188FEF7C1FD87F326
:101E1000118801F0EDF95046084903B0BDE8F04FD4
:101E200001F03EBA302E0020F03000200883000878
:101E30004C710008447100084071000848710008A6
:101E400071170008C00E0020B0840008410200088D
:101E500070B501F0BDF9202686F311884FF080455A
:101E60006C6A0023A4B283F31188C820FFF738F905
:101E700004F1C80104F1CB0289B292B2012001F051
:101E8000E7F900B170BD86F311886C6AA4B280F3E3
:101E90001188C820FFF724F904F1C80104F1CB022E
:101EA00089B292B2022001F0D3F90028EAD186F378
:101EB00011886C6AA4B280F311884FF4FA60FFF7BE
:101EC0000FF904F5FA6104F2D37289B292B20320D9
:101ED00001F0BEF90028D5D186F311886C6AA4B24E
:101EE00080F3118804F1C805ADB22846FFF7E0F889
:101EF00004F1CB022946BDE8704092B2042001F003
:101F0000A7B900BF000000000000000000000000B2
:101F1000F8B5494EB3699C68651C2846FEF7C8FBB6
:101F20000746391BB1FA81F10120490901F0E0F9B6
:101F300000B1F8BDB36902209968691AB1FA81F15C
:101F4000490901F0D5F90028F3D13846FEF7B0FB76
:101F5000291AB1FA81F10320490901F0C9F90028D1
:101F6000E7D1B36904209968611AB1FA81F149098E
:101F700001F0BEF90028DCD1202383F31188B26977
:101F800093680233936080F31188B369A71C996842
:101F90000520791AB1FA81F1490901F0A9F900285F
:101FA000C7D12846FEF784FB011BB1FA81F1062058
:101FB000490901F09DF90028BBD1B3690720996850
:101FC000791AB1FA81F1490901F092F90028B0D1EA
:101FD000B3690820D96B691AB1FA81F1490901F096
:101FE00087F90028A5D1E71C3846FEF761FB281ABF
:101FF00041424141092001F07BF9002899D1B369A0
:102000000A2099687A1A5142514101F071F9002869
:102010008FD1B3690B20D96B7B1A5942594101F01A
:1020200067F9002885D1202383F31188B3699C6068
:10203000DC6380F311887CE7302E00200000000074
:1020400010B4074C024600F10F01002012F8013BCA
:1020500043408A42E05CF9D15DF8044B704700BF11
:102060000008002000000000000000000000000048
:1020700010B4074C421E00F10D01002012F8013F80
:1020800058408A42205CF9D15DF8044B704700BF8C
:102090000008002000000000000000000000000018
:1020A000024B00221B605B609A607047800E00202C
:1020B000024B01221B605B609A607047B40E0020E7
:1020C000704700BF0000000000000000000000009A
:1020D000024B00221B605B609A607047B40E0020C8
:1020E000202383F3118862B672B683F3118862B637
:1020F000002383F3118862B6704700BF0000000020
:1021000001464268C36910680133CB613030373112
:102110000F224FF6FF7301F0A3BC00BF00000000C8
:10212000044680B5204B214A9B69DFF8848082B049
:102130009A6100F6381500F28C7700F14806D4F861
:102140005C29D4F8B03722626362284601A94FF6B1
:10215000FF72FEF7DDFE0028F1D13046DDF8049075
:10216000FEF7D6F948B92369013323614FF6FF72B0
:1021700038460199FEF7F4FEE1E7636849461868BE
:102180000F224FF6FF73303001F06AFCD8F80C30A4
:10219000304683F02003C8F80C30FEF7E9FCA36852
:1021A0000133A360E2E700BF302E00207071000809
:1021B000000C0140000000000000000000000000D2
:1021C000054680B5284B294A9B6982B000F1280753
:1021D0009A6100F1370600F148094FF000083C46CB
:1021E0006B682146186801340C3001224FF6FF73EA
:1021F000FEF7F6FEB442F3D13846FFF721FF18B9D7
:10220000EB680133EB60EAE74846FEF751FD2846EC
:10221000FFF776FFAB6900240133AB6101E00F2CBF
:102220001CD06A686B69106801336B610C30022343
:102230000DF107010122FEF7D3FE9DF80730FF2BB9
:102240006B6904BF01348DF80780632BE7DD2846F6
:10225000FFF756FF0F2CC5F81480E2D1C5F81480A3
:102260004846FEF785FCBAE7302E00208071000852
:1022700010B52F482F4C01F08BF84FF4A87001F0E7
:1022800097F8204601F064F82B4801F081F84420CB
:1022900001F08EF8204601F05BF8284801F078F84C
:1022A000142001F085F8204601F052F8244801F08E
:1022B0006FF80C2001F07CF8204601F049F8214825
:1022C00001F066F8042001F073F8204601F040F8B0
:1022D0001D4801F05DF8142001F06AF8204601F075
:1022E00037F81A4801F054F8102001F061F8204640
:1022F00001F02EF8164801F04BF8082001F058F8CC
:10230000204601F025F8134801F042F8242001F09E
:102310004FF8204601F01CF80F4801F039F828204A
:1023200001F046F82046BDE8104001F011B800BFAA
:1023300094710008A4710008AC710008BC71000819
:10234000CC710008DC710008EC710008FC71000819
:102350000C7200081C7200082C72000800000000BB
:1023600038B500F035FF04F003FD144D0024144887
:10237000FEF79EFC1248FEF7FBFB1148FEF798FCA7
:102380000F48FEF7F5FB0E48FEF792FC0C48FEF7EF
:10239000EFFB0B48FEF78CFC0948FEF7E9FB2B78B6
:1023A0000134002BE3D0074800F0F2FFA00000F05A
:1023B000FFFFBDE83840044800F0CABF2C2E0020C3
:1023C000800E00203C7200084C72000800000000E3
:1023D00038B500F0FDFE04F0CBFC144D0024144889
:1023E000FEF78EFA1248FEF7ABF91148FEF788FAAD
:1023F0000F48FEF7A5F90E48FEF782FA0C48FEF7E3
:102400009FF90B48FEF77CFA0948FEF799F92B78FB
:102410000134002BE3D0074800F0BAFFA00000F021
:10242000C7FFBDE83840044800F092BF2C2E0020C2
:10243000B40E00203C7200085C720008000000002E
:1024400010B5064CA3695B7F5A0706D40448FEF713
:1024500057FAA3695B7F5B07F8D510BD302E0020CB
:10246000B40E00200000000000000000000000008A
:1024700038B500F0ADFE04F07BFC154D00242023A0
:1024800083F3118813480121134A0023FEF7B8FC97
:1024900042F21071104A00231048FEF7B1FC0D48BB
:1024A000FEF76EFC0D48FEF76BFC002383F31188EA
:1024B0002B780134002BE2D0094800F069FF60005E
:1024C00000F076FFBDE83840064800F041BF00BF8D
:1024D0002C2E00206C0E0020C1200008580E002079
:1024E0003C7200086C720008000000000000000050
:1024F000F8B52649264B002201F110001B605B60F5
:1025000014461861D960996159619A60DA611A625A
:10251000174600F05DFE04F02BFC1E4E202585F3CF
:10252000118800211A48FEF74BFA01211848FEF7DE
:1025300047FA02211648FEF743FA03211448FEF732
:102540003FFA87F311884FF6FF711148FEF788FDB7
:102550004FF6FF710E48FEF783FD4FF6FF710C48F2
:10256000FEF77EFD0A484FF6FF71FEF779FD3378DE
:102570000134002BD3D0084800F00AFFA00000F07F
:1025800017FFBDE8F840054800F0E2BED40E002079
:10259000900E00202C2E00203C720008787200085B
:1025A0002DE9F041DFF8D08084B004AC002344F87A
:1025B000043D00F00DFED8F818302A4F2A4E9A68D4
:1025C00038463346013A00944FF4A471FEF720F9DF
:1025D000D8F81830254D9A684FF4A4712860334616
:1025E000013A009407F5A470FEF712F9D8F81830F4
:1025F00068609A6807F524703346013A00944FF4F6
:10260000A471FEF705F9D8F81830A8609A6807F5A4
:1026100076703346013A00944FF4A471FEF7F8F84F
:10262000D8F818304FF4A4719A68E860013A33463C
:1026300007F5A4600094FEF7EBF828614FF4FA6008
:10264000FEF74EFD00F0ECFD00F0D2FD084800F072
:102650009FFE039800F0ACFE064800F079FE04B03F
:10266000BDE8F081A82F0020F1260008C00E002050
:102670003C72000884720008302E00200000000028
:10268000F0B5124B83B09B6900249D682746104E1D
:10269000013500F09DFD04F06BFB0E4B00970E48DA
:1026A0004FF4A4712A46FEF7B3F833780134002BB7
:1026B000F3D00A4800F06CFE204600F079FE08488E
:1026C00003B0BDE8F04000F043BE00BF302E002054
:1026D0002C2E0020C12F0008A82F00203C720008DB
:1026E00090720008000000000000000000000000E0
:1026F00038B50446084DFDF793FFFDF791FFFDF750
:102700008FFFFDF78DFF2368AA6904332360537F91
:102710005B07F0D538BD00BF302E00200000000060
:102720002DE9F0433A4E83B0B36900249A684FF420
:10273000A4710532374B38480094FEF769F8B36945
:10274000364D9A684FF4A47128600432314B0094DE
:102750003348FEF75DF8B36968609A684FF4A47176
:1027600003322C4B2F480094FEF752F8B369A8604F
:102770009A684FF4A4710232264B2B480094FEF75E
:1027800047F8B369E8609A684FF4A4710132214BAD
:1027900026480094FEF73CF8A146286100F018FD99
:1027A00004F0E6FADFF898802027202687F31188C6
:1027B0001F480021FEF7A4FA0025FDF769FF89F301
:1027C000118898F800300134002BEED000F028FD7D
:1027D00086F3118816482946FEF792FAFDF758FF4E
:1027E00085F3118800F004FD124800F0D1FD204669
:1027F00000F0DEFD104800F0CBFD04EB440040008B
:1028000000F0D6FD0D4803B0BDE8F04300F0A0BDD8
:10281000302E002041240008A82F0020C00E0020E8
:10282000F03000203832002080330020C8340020EF
:10283000B40E00203C7200089C72000884720008EC
:102840002C2E00200000000000000000000000000E
:10285000F0B5134B83B09B6900249D682746114E49
:10286000013D00F0B5FC04F083FA0F4B4FF4A47166
:102870002A4600970D48FDF7CBFFFEF769F833783D
:102880000134002BF1D00A4800F082FD204600F010
:102890008FFD084803B0BDE8F04000F059BD00BF0F
:1028A000302E00202C2E0020C12F0008A82F002041
:1028B0003C72000890720008000000000000000058
:1028C0002DE9F047254B82B09B6900259A684FF4AB
:1028D000A4710132224B23480095FDF799FF224B4A
:1028E00004461860AA4600F073FC04F041FADFF8D1
:1028F00084904FF02008202788F31188002120467B
:10290000FDF7EEFE20460021FDF7EAFE20460021FD
:10291000FDF7E6FE20460021FDF7E2FE00268AF3E1
:10292000118899F800300435002BE4D087F3118822
:102930004FF0FF312046FDF7D3FE86F3118800F0FB
:1029400057FC0A4800F024FD680000F031FD0848FB
:1029500002B0BDE8F04700F0FBBC00BF302E002005
:1029600081290008A82F0020C00E00203C7200081A
:10297000847200082C2E00200000000000000000DF
:10298000074A10B52023946983F311880320FDF7CB
:102990007FFF236A002BF9D0002383F3118810BD39
:1029A000302E0020000000000000000000000000A9
:1029B00070B520260025FDF783FF046B86F3118890
:1029C0002146FDF78DFE85F31188002CF3D170BDF3
:1029D00070B5054600F0FCFB04F0CAF9074E002470
:1029E00028460121FEF71CF833780134002BF7D07C
:1029F00028460021FEF714F8204670BD2C2E00203A
:102A00002DE9F0412C4F2D4EBB6982B09A6800250C
:102A10003046013200954FF4A471294BFDF7F8FEC2
:102A2000BB69284C9A68DFF8AC8020604346023AC4
:102A3000009506F5A4704FF4A471FDF7E9FEBB699B
:102A400060609A6806F524704346033A00954FF497
:102A5000A471FDF7DDFEBB69A0609A6806F576708B
:102A60004346043A00954FF4A471FDF7D1FEBB69CB
:102A70004FF4A4719A68E060053A434606F5A460F5
:102A80000095FDF7C5FE20612068FFF7A1FF044611
:102A900000F0AEFB0C4800F07BFC204600F088FC08
:102AA0000A4800F075FC600000F082FC084802B0A3
:102AB000BDE8F04100F04CBC302E0020A82F0020D3
:102AC000B1290008C00E00203C720008B072000856
:102AD00084720008C12F0008000000000000000000
:102AE00010B5134A82B09269002392684FF4A47122
:102AF000013200930F48104BFDF78AFE0F4B186010
:102B0000FFF766FF044600F073FB0D4800F040FC41
:102B1000204600F04DFC0B4800F03AFC600000F04D
:102B200047FC094802B0BDE8104000F011BC00BFEE
:102B3000302E0020A82F0020B1290008C00E002050
:102B40003C720008B07200088472000800000000A7
:102B500010B5134A82B09269002392684FF4A471B1
:102B6000013A00930F48104BFDF752FE0F4B1860CF
:102B7000FFF72EFF044600F03BFB0D4800F008FC79
:102B8000204600F015FC0B4800F002FC600000F04D
:102B90000FFC094802B0BDE8104000F0D9BB00BFEF
:102BA000302E0020A82F0020B1290008C00E0020E0
:102BB0003C720008B0720008847200080000000037
:102BC00038B5202484F311880120FEF7B9FA0023D8
:102BD00083F3118880F00101C9B2012000F088FB65
:102BE000054600B138BD84F311880220FEF7A8FA2B
:102BF00085F3118880F00101C9B2022000F078FB52
:102C000005460028EED184F311880420FEF798FAD7
:102C100085F3118880F00101C9B2032000F068FB40
:102C200005460028DED184F311880820FEF788FAD3
:102C300085F31188BDE8384080F00101C9B2042055
:102C400000F056BB00000000000000000000000083
:102C50000EB42DE9F04F86B00FAA52F8049B8246BD
:102C6000CB46154602920DF10D0303AA9B1A019360
:102C70004FF000089BF800100BF1010379B12529F2
:102C800013D09B46DAF800205046926890479BF894
:102C9000001008F101080BF101030029EFD14046B3
:102CA00006B0BDE8F04F03B070479BF80120002646
:102CB0002D2A03BF9BF802200BF102034FF00109FC
:102CC0004FF00009302A03BF5A78013330272027FC
:102CD000591C06E02B7804359BF8002003EB4006D6
:102CE0000131A2F13003DBB2092B8B4606EB8600E3
:102CF000F2D92A2AEED02E2A4FF0000143D002F05A
:102D0000DF034C2B4ED0A2F14400342800F2F680B1
:102D1000DFE810F0EA00F400F400F400F400EA0048
:102D2000F400F400F400F400F400E800F400F4000F
:102D3000F400F400F400DD00F400F400F100F4000D
:102D4000F400F400F400F400F400F400F400F400E3
:102D5000F400A100EA00F400F400F400F400EA003A
:102D6000F400F400F400F400F400E800F400F400CF
:102D7000F4007100F400DD00F400F400F1002B78A1
:102D8000043503EB40011BF8012B01EB8100A2F19C
:102D90003003DBB2092BF4D92A2AF0D002F0DF038A
:102DA0004C2BB0D19BF80030002B00F0A780A3F192
:102DB00044020BF1010B342A00F29F80DFE802F09D
:102DC000949D9D9D9D949D9D9D9D9D929D9D9D9D50
:102DD0009D879D9D9B9D9D9D9D9D9D9D9D9D9D4B8D
:102DE000949D9D9D9D949D9D9D9D9D929D9D9D1BB2
:102DF0009D879D9D9B002C68594B0435002C08BF76
:102E00001C462378002900F09380002B00F0958069
:102E10000139204601E0013903D410F8013F002BAD
:102E2000F9D1001B361A431E202726EAE676B9F1AF
:102E3000000F1FD0002B009334DA002E3FF41AAF9E
:102E40003446DAF8003050469B6839469847013CD2
:102E5000F7D1B0440EE7019A2B6810468DF80C307C
:102E60000435531E202703AC361A26EAE676B9F15C
:102E7000000FDFD10093C6F10009B9F1000F44D073
:102E800021782D2946D04E46DAF8003050469B680E
:102E9000394698470136F7D1009BC9EB0808002B4B
:102EA000FFF6E8AEDDF80090DAF8003009F1FF39FE
:102EB0009B68504614F8011B9847B9F1FF3FF3D1C6
:102EC000009B08F10108002BA8BF9844B5E70A222F
:102ED000296803A8043503F0B3FF03ABC01A431EEF
:102EE00003ACC1E70822F3E72968043500292EDB8B
:102EF00003A80A22EFE71022EAE71A46019B03AC77
:102F000018468DF80C20013BAEE7009B4E46002B87
:102F1000C8DAAFE6302FB6D1DAF8003050469B68F9
:102F20009847009B0134013B08F101080093AAE790
:102F300047F6FE71002B7FF46CAF26EAE676B9F116
:102F4000000F0BD14FF0FF330093202793E72D2381
:102F500049428DF80C300DF10D00CAE720276CE7CF
:102F6000BC7200080000000000000000000000002B
:102F7000F0B583B006460C4600F28C7001A94FF6FE
:102F8000FF72FDF7C5FF0546A8B9019F631E7A1EB3
:102F900004F10E0113F8010F8B4202F8010FF9D171
:102FA0003846FFF765F80199B8734FF6FF7206F6D9
:102FB0003810FDF7D5FF284603B0F0BD0000000033
:102FC000FDF7D6BE00000000000000000000000079
:102FD00070B5094E4C2430682D210368064D9B685E
:102FE0009847013CF7D128680449036802221B680E
:102FF000BDE87040184700BFEC0E0020847E00083A
:10300000014B01221A7070472C2E00200000000096
:10301000024AD36843F08003D36070470038014010
:10302000024AD36843F08003D360704700440040F5
:10303000202383F311880F4B5B6813F4006302D1E4
:1030400083F311887047EFF309834FF0807243F8E0
:10305000042CA3F1200282F30988074A11689269BF
:103060008968926891428CBF044A054A43F8082C4B
:10307000704700BF00ED00E0302E00205102000834
:1030800054020008000000000000000000000000E2
:103090002DE9F0414FF0804423699B0703D4BDE83C
:1030A000F041FFF7C5BF00272761202585F3118870
:1030B0001E4E626AB6F826E0F36990B2CEEB0001CC
:1030C0001A8989B2914206F11C081BD3196872440F
:1030D0004145F284DA68C1F80480F161DF6008BF1D
:1030E000E76087F311881869904785F31188626A51
:1030F000B6F826E0F36990B2CEEB00011A8989B2E6
:103100008A42E3D943450AD07244121A92B2012A84
:1031100098BF0222024492B24FF080435A630023C8
:1031200083F31188BDE8F041FFF782BF302E002005
:10313000EFF30983203383F30988002383F3118895
:10314000704700BF00000000000000000000000009
:1031500010B4202383F31188094C0A4B22681968A4
:10316000C31D23F00703891A8B429DBF9B18236060
:1031700010460020002383F311885DF8044B70474C
:10318000A02F0020A42F002000000000000000005D
:103190000C30FDF725BF00BF00000000000000005C
:1031A0000C304FF6FF73FDF71BBF00BF000000009F
:1031B0000C30FDF755BF00BF00000000000000000C
:1031C0000C304FF6FF71FDF74BBF00BF0000000051
:1031D00008B50120FDF784FF202383F311884FF009
:1031E0008043586A002383F3118880B208BD00BF72
:1031F00070B5074C002604F1140554F8040B18B1FF
:10320000FDF7A6FB44F8046CAC42F6D170BD00BFDC
:10321000C00E0020000000000000000000000000C0
:103220000A4B30B403F114002025002453F8042B7A
:103230003AB185F31188517F41F00401517784F34D
:1032400011888342F2D130BC704700BFC00E00200D
:1032500010B4202383F311884FF080435C6A00236D
:1032600083F31188521A641AA1B292B2914206D322
:10327000054C0649064A012323700B70106018465E
:103280005DF8044B704700BFE80E0020E90E0020F7
:10329000000F0020000000000000000000000000FF
:1032A000F0B40E4E0E4F35683B4605E013F8014B67
:1032B00011F8012B944207D1AB42F7D30B781BB91D
:1032C00037601846F0BC7047064C0749074A01238F
:1032D000237010600B701846F0BC7047E40E00209D
:1032E000F00E0020E80E0020E90E0020000F002064
:1032F00059B910B40649074C074A012323701060DE
:103300000B7018465DF8044B704700231846704751
:10331000E90E0020E80E0020000F00200000000051
:1033200010B4202383F31188054B00211A68541C24
:1033300010701C6081F311885DF8044B704700BF6A
:10334000E40E00200000000000000000000000006B
:1033500070B501780446094D39B1286803689B6847
:10336000984714F8011F0029F7D128680449036819
:1033700002221B68BDE87040184700BFEC0E002019
:10338000847E000800000000000000000000000033
:1033900038B50178044641B1044D286803689B683C
:1033A000984714F8011F0029F7D138BDEC0E002012
:1033B00010B370B584B06D466C46124AA2FB001380
:1033C000DB0803EB8301A0EB410000F13001C9B23F
:1033D00004F8011B1846002BF0D1AC420AD90A4E62
:1033E000013C01E014F8011D306803689B689847B0
:1033F000AC42F7D104B070BD034B302118680368AC
:103400009B681847CDCCCCCCEC0E0020000000000F
:103410002DE9F04F9F4C83B020609F48FFF798FF45
:103420009E48FFF795FF9E4D9E48FFF791FF2A218A
:10343000206803689B68984715F8011F0029F7D199
:1034400099489A4DFFF784FF2A21206803689B68FA
:10345000984715F8011F0029F7D19548954DFFF7BA
:1034600077FF2A21206803689B68984715F8011F99
:103470000029F7D19048914DFFF76AFF2A21206873
:1034800003689B68984715F8011F0029F7D18C48FD
:103490008C4DFFF75DFF2A21206803689B689847E1
:1034A00015F8011F0029F7D18748884DFFF750FF15
:1034B0002A21206803689B68984715F8011F002996
:1034C000F7D18348834DFFF743FF2A212068036823
:1034D0009B68984715F8011F0029F7D17E487F4D5A
:1034E000FFF736FF2A21206803689B68984715F884
:1034F000011F0029F7D17A480091FFF729FF66489C
:10350000FFF726FF774B0099774F1970774BDFF85D
:1035100084B10193009B00260133009357F82630B5
:1035200007EB8608002B00F08B80714DFFF750FDF4
:103530002D21206803689B68984715F8011F002912
:10354000F7D10098FFF734FFDBF800002E21036865
:1035500001369B689847674D3046FFF729FF2021C9
:10356000206803689B68984715F8011F0029F7D168
:10357000D8F800301D68297839B1206803689B6845
:10358000984715F8011F0029F7D15B48FFF7E0FEC7
:103590004FF4C870FDF7A4FD584AD8F800A00023E6
:1035A000136053609360D3601361DFF87C81544DE6
:1035B000DFF85C91DAF8042088F80030C5F8009054
:1035C00002B19047DAF80C309847DAF8083003B1C6
:1035D0009847FFF70DFE98F80030002B4FD0494F69
:1035E0002D21206803689B68984717F8011F002960
:1035F000F7D1454B454F1868FFF7DAFE20212068C8
:1036000003689B68984717F8011F0029F7D12B68BA
:103610004B4509D93E4F206817F8011B03689B688A
:1036200098472B689F42F6D33A48FFF791FE019BDB
:103630001F6857F8263007EB8608002B7FF475AF1C
:10364000019B53F8047F0193002F7FF463AFFFF7D2
:10365000BFFC314D1048FFF77BFE46212068036810
:103660009B68984715F8011F0029F7D11D4B1B785F
:103670004BB92A4803B0BDE8F04FFFF769BE2848B0
:10368000FFF766FE4AE7274803B0BDE8F04FFFF7B3
:103690005FBE00BFEC0E0020D4800008A0770008B9
:1036A000C0760008BC770008E4770008D4760008EC
:1036B000EC770008E876000804780008FC7600083B
:1036C0004C78000810770008547800082477000828
:1036D0006078000838770008787800084C77000890
:1036E000A4780008E80E0020907400080075000817
:1036F0006077000870770008C0770008C00E0020CF
:10370000E40E002074770008000F00208C7700087A
:10371000F00E0020C477000890770008D4770008E6
:10372000C8770008DC770008E90E002000000000E0
:103730001F4B19461A6842F001021A600B681C4AB6
:103740009B07FBD511461368002003F0F9031360B3
:1037500050604B68164A13F00C0FFAD111461368EB
:1037600043F4803313600B68114A9803FBD511466C
:10377000536843F4E8135360136843F08073136095
:103780000B680B4A9B01FBD5114610B4094B0A4C40
:10379000122054601860536843F0020353604B6872
:1037A00003F00C03082BFAD15DF8044B704700BFFF
:1037B000001002400020024000641D0000000000D4
:1037C00038B5084D08492846084C03F0A1FA084BC3
:1037D00020460849C5F8AC3203F09AFA064BC4F803
:1037E000AC3238BDCC280020113000087C2B0020E2
:1037F0000038014021300008004400400000000073
:1038000070B4202383F31188244C027A002908BF66
:103810002146012A21D00C68214AD0F8AC32B2FBF3
:10382000F4F29A608A88CC88098942F4045244F000
:10383000400442F02C0241F00101A4B292B289B2DC
:1038400000251C6159610224DA601D601A685B68FA
:10385000047285F3118870BC7047124A904210D0F0
:10386000114B9842D7D1114D114BEA694024C02623
:1038700042F40032EA6183F82663C3F884415C6055
:10388000C9E70A4D0A4AAC69C02644F48044AC61D9
:1038900082F82563C2F884315360BCE7D073000816
:1038A00000512502CC2800207C2B00200010024073
:1038B00000E100E000000000000000000000000047
:1038C00008B52022034682F31188006828B10268F7
:1038D0001A60002383F3118808BD9A68002AF8D083
:1038E00058689047002383F3118808BD000000004A
:1038F00070B50F4C0E46002818BF044604F11005A1
:103900002846FDF7D5F9A36873B10022144658681C
:103910001B6801340244002BF9D106B132602846FD
:10392000FDF726F9204670BD1A461C46F5E700BF94
:10393000081300200000000000000000000000004C
:10394000F8B550F8085C064605F11007A0F1080428
:1039500008353846FDF7ACF92B46AB4204D0A342FC
:1039600002D31B68AB42FAD11A681AB1944201D350
:103970001346F2E756F8041C46F8082C1C6001F1C7
:10398000080256F8085CA018A8420AD0596801F14C
:1039900008021A44944210D03846BDE8F840FDF7BA
:1039A000E7B84568A0584A19083206E90500596881
:1039B00001F108021A449442EED116E905000A44C6
:1039C000083283E805003846BDE8F840FDF7D0B876
:1039D000F8B5214E0731002818BF064606F110073A
:1039E000384621F0070506F10804FDF761F903E008
:1039F00043689D4212D9044620680028F8D1384611
:103A0000FDF7B6F8336823B305F10800984700B313
:103A10000660456000F108042046F8BD05F1080184
:103A2000994209D9036823600446384644F8086B74
:103A3000FDF79EF82046F8BD6FF0070EC5EB0E0EA1
:103A40009E44036842184350C2F804E02260456077
:103A5000EAE70024E0E700BF0813002000000000B0
:103A60002DE9F04F83B004468B4615460193C76994
:103A70004FF0200888F311880026B146A3680BF1A7
:103A8000010AFBB16269A368501C013B6061A3603D
:103A90009BF800301370236962699A4224BFE3687F
:103AA00063610FB12046B84789F31188013D06F1E3
:103AB000010611D088F31188D346A3680BF1010ADF
:103AC000002BDFD1204601990093FDF771FA009B8E
:103AD0000028D3D083F31188304603B0BDE8F08FBF
:103AE0003030FFF7BDBF00BF000000000000000045
:103AF00030304FF6FF73FFF7B3BF00BF0000000088
:103B000038B5426983699A4219D082680569591C9F
:103B1000013282608161A9421C780DD20268904214
:103B200008D003461168002501604B6010461562FD
:103B3000FCF72EFF204638BDC3688361EEE782683C
:103B4000002AE2D06FF0020038BD00BF0000000084
:103B50002DE9F043D0F8AC5283B0D5F80C902B6827
:103B60000646DA059CB261D4202383F3118814F051
:103B70002F0F35D0371D06F10C0807E0A0066B6843
:103B80001DD42C68A4B214F02F0F29D02307F5D030
:103B900014F0080F0CBF00218021E00748BF41F05E
:103BA0002001A20748BF41F04001630748BF41F42C
:103BB00080713846FCF76CFFA0066B68E1D572692E
:103BC0006AB3D9B24046FCF7FBFE0028D9DA384682
:103BD0008021FCF75DFF2C68A4B214F02F0FD5D123
:103BE000002383F3118819F0800F01D022062CD412
:103BF000630611D5202383F31188B26C736C9A424B
:103C000031D04FF6BF736FF0400209EA0303EB6057
:103C100000232A6083F3118803B0BDE8F08338469F
:103C200004210193FCF734FF019BCAE7202383F3AF
:103C300011884FF400710430FCF72AFF6FF4807391
:103C40002B60002383F311888EE7202383F31188F0
:103C500006F13000FFF754FF00280CDB68600023FA
:103C600083F31188C4E7B36B002BCAD0301D102139
:103C7000FCF70EFFC5E7301D0821FCF709FF4FF6E2
:103C80003F7309EA030343F04003EB60E7E700BF3B
:103C900008B50348FFF75CFFBDE80840FFF7C8B967
:103CA0007C2B00200000000000000000000000004D
:103CB00008B50348FFF74CFFBDE80840FFF7B8B967
:103CC000CC280020000000000000000000000000E0
:103CD000F8B504460F461646202383F3118805E005
:103CE00020463146FDF764F9002817DBA568002D52
:103CF000F6D06269A368511C013B6161A360177033
:103D0000236962699A4224BFE3686361E3690BB186
:103D100020469847002080F31188F8BD85F311886C
:103D2000F8BD00BF0000000000000000000000001F
:103D30003030FFF7CDBF00BF0000000000000000E2
:103D400030304FF6FF72FFF7C3BF00BF0000000026
:103D5000704700BF000000000000000000000000ED
:103D600030B4084A084B0948151D042400211D6180
:103D70009C601B605B60DA609A615A61D86119626D
:103D800030BC7047A82F00200C090020513D0008CE
:103D9000084A094B094810B40021141D1C611B601E
:103DA0005B60DA609A615A61D861996019625DF866
:103DB000044B7047A82F002030090020513D000817
:103DC000094910B400224FF4CC64084B81E8140078
:103DD00003F11000DA609960186158611A609A6105
:103DE0005DF8044B704700BFA82F0020080F00208B
:103DF000034B00224FF4A47159601A609A60704717
:103E0000942F0020000000000000000000000000CF
:103E1000094910B400224FF4CC64084B81E8140027
:103E200003F11000DA609960186158611A609A61B4
:103E30005DF8044B704700BFA82F0020080F00203A
:103E400010B586B0EFF311831BB9FDF769F9FDF7E3
:103E500057F9202383F31188EFF311831BB9FDF782
:103E60005FF9FDF74DF9002383F31188EFF3118318
:103E700013B9202383F31188EFF3118313B920239F
:103E800083F31188002383F31188202282F31188A1
:103E9000EFF311820AB183F31188EFF3118313B1A9
:103EA000002383F3118800230493202383F31188D4
:103EB000049B01AC13B12046FCF762FF20460121B0
:103EC0000B4A0023FCF79CFF002484F311880A208E
:103ED000FDF706F9202383F31188049984F31188F0
:103EE000B1FA81F101204909FFF702FA06B010BDCD
:103EF000013F00080000000000000000000000007A
:103F000008B5202383F31188002282F3118883F3FC
:103F10001188EFF311831BB9FDF702F9FDF7F0F8F3
:103F2000002383F3118808BD00000000000000009A
:103F3000024800214FF4C872FFF7CABE0C090020E6
:103F40000078FFF7EDB900BF00000000000000009E
:103F50002DE9F047202382B083F311888F4F7A69CF
:103F6000BB699A425DD000210120FFF7C1F9B8BBBF
:103F700080F311884124894D2146013428464FF6AB
:103F8000FF72E4B2FFF7A4FE452CF4D1202686F39D
:103F90001188A9680220B1FA81F14909FFF7A8F94F
:103FA0008046E8B980F31188824604244FF0200946
:103FB00086F31188794D2846FFF7A2FD8AF3118810
:103FC000C0B2FFF7ADF9013CF0D189F311886A69FD
:103FD000AB699A422AD041460320FFF789F928B1FC
:103FE000002383F3118802B0BDE8F08780F31188C5
:103FF00004206B49FFF754F904460028F3D120262A
:1040000086F31188654D2846FFF77AFD033014BF0B
:10401000002101210520FFF76BF970B184F31188AD
:10402000E1E7B968003118BF01219DE7AB6813F1E2
:10403000000818BF4FF00108CDE780F311885949F7
:10404000034608222846FFF70BFDA0F10401B1FA50
:1040500081F106204909FFF74BF904460028C2D137
:1040600086F31188A9680720B1FA81F14909FFF7A1
:104070003FF980460028D1D180F311884A4B4FF494
:10408000A4719B6949489A68494B0132CDF8008078
:10409000FCF7BEFB474B186086F31188E9682B6973
:1040A000AA685B1A991AA1F10401B1FA81F10820FA
:1040B0004909FFF71DF910B188F3118893E780F3E0
:1040C0001188FFF795F886F31188E9682A692B684B
:1040D000521AAB42A9616961AA6018BF6FF001046E
:1040E00009D01A68184657603A601C62FCF750FC09
:1040F0003B68BB42F5D1002585F31188202686F365
:1041000011883B69FA68B9689B1A591AB1FA81F1AA
:1041100009204909FFF7ECF8204C034610B185F35C
:10412000118860E780F311881E4902222046FFF7BC
:1041300097FC0238414241410A20FFF7D9F8034673
:1041400000287FF450AF174902222046FFF788FC71
:10415000821E514251410B20FFF7CAF80546002844
:104160007FF441AF86F31188A1680C20B1FA81F188
:104170004909FFF7BDF801460028D0D180F3118826
:104180000A222046FFF7A4FD431C594259410D2045
:1041900002B0BDE8F047FFF7ABB800BF0C09002044
:1041A000A07D0008F0300020302E0020A82F002035
:1041B000313F0008C00E0020000000000000000099
:1041C00002484FF4C871FCF74BBF00BF3009002014
:1041D0002DE9F041202482B084F31188984F01200A
:1041E000B968B1FA81F14909FFF782F80646E8B9E2
:1041F00080F3118884F311884124914D21460134C4
:104200002846E4B2FCF7DCFB452CF6D1002383F30F
:104210001188202383F31188AA696B699A423AD0E6
:1042200031460220FFF764F8044628B1002383F3E7
:10423000118802B0BDE8F08180F31188202383F358
:1042400011887F482146FCF7BBFB043014BF0021D6
:1042500001210320FFF74CF8C0B980F31188042432
:10426000774D4FF6FF712846FCF7FAFEC0B2FFF714
:1042700057F8013CF4D1202686F31188A968042060
:10428000B1FA81F14909FFF733F848B184F3118895
:1042900002B0BDE8F081AE68003618BF0126BFE766
:1042A00084F3118805206749FEF7FAFF0028C0D182
:1042B00086F311884124624D214601342846E4B238
:1042C000FCF77EFB452CF6D1002383F311885E4971
:1042D00008222846FCF784FEA0F10401B1FA81F11E
:1042E00006204909FFF704F804460028A1D120263A
:1042F00086F31188A9680720B1FA81F14909FEF710
:10430000F7FF0028C2D180F3118886F31188412479
:104310004B4D214601342846E4B2FCF751FB452CB5
:10432000F6D1002383F31188474928460222FCF77F
:1043300057FEA0F10201B1FA81F108204909FEF708
:10434000D7FF00287FF475AF03463F490222284675
:10435000FCF746FEA0F10201B1FA81F109204909FA
:10436000FEF7C6FF804600287FF463AF202686F361
:104370001188A9680A20B1FA81F14909FEF7B8FF4E
:10438000044610B188F3118853E780F3118886F34F
:10439000118821462846FCF713FB2B68EA68AB42DC
:1043A000AC60AA616A6118BF6FF0010409D01A6895
:1043B000184657603A601C62FCF7EAFA3B68BB4259
:1043C000F5D14FF0000888F31188202686F3118874
:1043D000B9680B20B1FA81F14909FEF789FF184D40
:1043E00004460028CED180F31188184B4FF4A471F5
:1043F0009B6917489A68174B01320094FCF708FA3A
:10440000154B186086F31188A9680C20B1FA81F168
:104410004909FEF76DFF00287FF438AF80F311885B
:10442000FEF7E6FE28460A21FCF71AFE431C594215
:1044300059410D2002B0BDE8F041FEF759BF00BF61
:1044400030090020A07D0008F0300020302E002030
:10445000A82F0020C1410008C00E0020000000006D
:1044600038B50546202383F311880A4B00241B69C5
:104470009A7F01329A7784F311881846AB4208BFBD
:1044800044F00104FCF78CF803460028F5D12046DF
:1044900038BD00BF302E00200000000000000000EA
:1044A00010B54A4A4A4B926982B092684FF4A4719F
:1044B00000934848013A484BFCF762F9817F044673
:1044C0000120091AB1FA81F14909FEF711FF08B17B
:1044D00002B010BD202383F31188A37F0133A3779B
:1044E00080F31188A17F0220091AB1FA81F14909EC
:1044F000FEF7FEFE0028EBD12046FCF721F8A17F55
:104500000320A1F10101B1FA81F14909FEF7F0FEA2
:104510000028DDD12046FFF7A3FF01460420FEF767
:10452000E7FE0028D4D12046FFF79AFF0146052078
:10453000FEF7DEFE0028CBD12046FCF701F8A17F74
:104540000620B1FA81F14909FEF7D2FE0028BFD159
:10455000217F0720B1FA81F14909FEF7C9FE002841
:10456000B6D12046FFF77CFF01460820FEF7C0FECB
:104570000028ADD12046FFF773FF01460920FEF762
:10458000B7FE0028A4D16420FCF7AAFD217F0A20F1
:10459000A1F10F0359425941FEF7AAFE002897D115
:1045A0002046FFF75DFF01460B20FEF7A1FE002825
:1045B0008ED12046FFF754FF80F00101C9B20C20D4
:1045C00002B0BDE81040FEF793BE00BF302E0020C1
:1045D00044710008080F0020413F0008000000005F
:1045E00070B52F4B2F4C05222025002085F3118814
:1045F00021682360196080F311886168013A0B44D7
:10460000F4D105252748FFF75BF9011C18BF0121EC
:104610000120FEF76DFE90BB013DF3D12148FFF76D
:104620004FF9B0FA80F102204909FEF761FE30BB74
:104630001D4B202603F1140053F8042B86F3118838
:1046400021681160226085F311888342F4D105242A
:10465000144D2846FFF734F9011C18BF012103202F
:10466000FEF746FE58B9013CF2D12846FFF728F97B
:10467000B0FA80F104204909FEF73AFE00B170BD9E
:104680000A4A102328462C60AA606B60FFF718F9CD
:10469000BDE87040B0FA80F105204909FEF728BE58
:1046A000A82F00200009002050710008C15F0008F9
:1046B0002F4AF8B592692F4B2F49956803F11007DF
:1046C0002026002453F8042B86F311880868106014
:1046D0000A6084F31188BB42F4D12849681E02F0B5
:1046E00087F9274C27492060A81E02F081F9264946
:1046F0006060E81E02F07CF92449A060281F02F0E7
:1047000077F92349E060681F02F072F9216820619F
:1047100041B1616831B1A16821B1E16811B1B0FA6C
:1047200080F149090120FEF7E3FD00B1F8BDFEF775
:104730005FFD02201749FEF7B3FD0028F6D10424DF
:104740000D48FFF7BDF8011C18BF01210320FEF73B
:10475000CFFD0028EAD1013CF2D10748FFF7B0F8BD
:10476000BDE8F840B0FA80F104204909FEF7C0BD69
:10477000302E002050710008942F00204471000852
:10478000C00E002040710008B084000808830008B3
:104790004C710008A07D000800000000000000002F
:1047A00070B5344B84B09B6903A933489D68FFF70B
:1047B0009FF8324B6A1E00934FF4A471304B2E4881
:1047C000FBF7DEFF2F4C304BAA1E206000934FF406
:1047D000A4712B4B2848FBF7D3FF02A96060264841
:1047E000FFF786F802992448FFF7F2F8274B4FF4B9
:1047F000A4710646EA1E00931F48214BFBF7C0FF39
:10480000A0603046FFF79CF8216821B1616811B1C2
:10481000A16831B300210120FEF76AFD08B104B0A0
:1048200070BDFEF7E5FC02201949FEF739FD0028AE
:10483000F5D102A91048FFF75BF8A0F10101B1FA28
:1048400081F103204909FEF753FD0028E7D10299C1
:10485000039B0420C91AB1FA81F14909FEF748FD0A
:10486000DDE7E368002BD6D12169B1FA81F149096E
:10487000D1E700BF302E0020080F0020447100084F
:10488000413F0008C00E002040710008B0840008BD
:10489000A87D0008000000000000000000000000EB
:1048A00070B40B4B0B4A052502F11406002403F1EA
:1048B0001C0003F110015E605D629C611A60DA60A9
:1048C0009A60D86118621961596170BC704700BF65
:1048D000E4090020A82F00200000000000000000D4
:1048E000064A074B07490020096049601260526080
:1048F000906098601B605B60704700BF6409002097
:10490000540900200C0A00200000000000000000F4
:10491000044B054A0021126052601B605B60996085
:10492000704700BF640900200C0A0020000000004E
:10493000044B054A0021126052601B605B60996065
:10494000704700BF640900200C0A0020000000002E
:104950002DE9F041202382B083F31188994E012084
:10496000716AA1F10501B1FA81F14909FEF7C0FCB4
:10497000002840F08B8080F311884224914D21461D
:104980004FF6FF722846FCF7EBFAB0FA80F10220EE
:104990004909FEF7ADFC013470B9462CEED14FF653
:1049A000FF71412002F04CF9B0FA80F1032049096F
:1049B000FEF79EFC00286FD002B0BDE8F08185F3C1
:1049C000118887F31188A1692A20B1FA81F1490978
:1049D000FEF78EFC002840F0A28285F31188E16882
:1049E000A3682B20C3EB010EDEF1000141EB0E01A9
:1049F000FEF77EFC0028DFD187F311882368626808
:104A000004F11C00D11A8910A360E360FCF778F967
:104A100004F110002946FCF773F9FBF739FE85F322
:104A2000118887F31188616A2C204E1F71427141F1
:104A3000FEF75EFC002840F0728285F3118887F350
:104A40001188A1692D20B1FA81F14909FEF750FCC6
:104A5000002840F0648285F3118887F3118821686B
:104A6000A3682E20CA1A51425141FEF741FC00288A
:104A700040F0558285F3118887F311882168E36837
:104A80002F20CB1A59425941FEF732FC002383F301
:104A9000118802B0BDE8F081582101222846FCF7B8
:104AA0005FFAA0F1FF31B1FA81F104204909FEF764
:104AB0001FFC044600287FF47FAF202787F311886E
:104AC000582002F09DF8014684F31188A1F1FF31CE
:104AD000B1FA81F105204909FEF70AFC00287FF4AC
:104AE0006BAF0121582002F0ABF8A0F1FF31B1FA11
:104AF00081F106204909FEF7FBFB044600287FF4FC
:104B00005BAF87F31188582002F0C2F8014684F3A6
:104B10001188A1F1FF31B1FA81F107204909FEF7AF
:104B2000E7FB804600287FF447AF87F31188696A66
:104B30000820B1FA81F14909FEF7DAFB044610B109
:104B400088F3118838E780F3118887F31188A96901
:104B50000920A1F1050CDCF1000141EB0C01FEF78D
:104B6000C7FB10B184F3118826E780F3118887F31F
:104B70001188E968AB680A20C3EB010EDEF1000181
:104B800041EB0E01FEF7B4FB002300287FF47FAF5A
:104B900083F31188052505E09DF80400FEF7C0FBAE
:104BA000013D11D0074C01A920464FF6FF72FCF7DA
:104BB000AFF9B0FA80F10B204909FEF799FB002804
:104BC000EAD0F9E6E40900200C20D649FEF768FB9C
:104BD00000287FF4F1AE472120464FF6FF72FCF724
:104BE000BFF9B0FA80F10D204909FEF781FB0028DA
:104BF0007FF4E2AE01A920464FF6FF72FCF788F978
:104C0000B0FA80F10E204909FEF772FB00287FF40C
:104C1000D3AE2168A3680F20CF1A79427941FEF7FD
:104C200067FB00287FF4C8AE2168E3681020CA1A29
:104C300051425141FEF75CFB00287FF4BDAE01A953
:104C400020460122FCF764F9431C594259411120C6
:104C5000FEF74EFB00287FF4AFAE202787F31188C4
:104C600001A802F035F8014685F3118801F1010829
:104C7000D8F1000141EB08011220FEF739FB0028B2
:104C80007FF49AAE87F31188616A1320A1F1050CB5
:104C9000DCF1000141EB0C01FEF72AFB00287FF458
:104CA000F5AE4FF0000888F31188202484F31188B2
:104CB000B1691420B1FA81F14909FEF719FB9A4D47
:104CC000074600287FF43CAF80F3118884F31188F5
:104CD000E968AB681520C3EB010EDEF1000141EB82
:104CE0000E01FEF705FB10B187F3118864E680F32F
:104CF000118884F31188412001F082FFB0FA80F11D
:104D000016204909FEF7F4FA00287FF455AE422038
:104D100001F076FFB0FA80F117204909FEF7E8FAB2
:104D200000287FF449AE432001F06AFFB0FA80F119
:104D300018204909FEF7DCFA00287FF43DAE442034
:104D400001F05EFFB0FA80F119204909FEF7D0FAB0
:104D5000074600287FF430AE452001F051FF87F36D
:104D60001188B0FA80F11A204909FEF7C1FA00282B
:104D70007FF422AEE968AB681B20CD1A6942694115
:104D8000FEF7B6FA00287FF417AE804625460524C4
:104D9000202785F3118801A801F09AFF88F3118874
:104DA000B0FA80F11C204909FEF7A2FA00287FF42E
:104DB00003AE9DF80400FEF7B3FA013CE8D11D20D4
:104DC0005849FEF76DFA00287FF4F6AD87F3118895
:104DD000716A1E204A1F51425141534DFEF788FA15
:104DE00000287FF4BFAE84F3118887F31188A96986
:104DF0001F20B1FA81F14909FEF77AFA00287FF401
:104E0000B1AE84F31188E968AB683846CB1A5942D1
:104E10005941FEF76DFA00287FF4CEAD87F3118873
:104E2000452001F035FFB0FA80F121204909FEF755
:104E30005FFA00287FF4C0AD442001F029FFB0FAEA
:104E400080F122204909FEF753FA00287FF4B4AD1F
:104E5000432001F01DFFB0FA80F123204909FEF73D
:104E600047FA00287FF4A8AD422001F011FFB0FA04
:104E700080F124204909FEF73BFA00287FF49CAD1D
:104E8000412001F005FF002383F31188B0FA80F17F
:104E900025204909FEF72CFA00287FF48DADF16832
:104EA000B3682620C3EB0108D8F1000141EB0801EB
:104EB000FEF71EFA00287FF47FAD044605254FF06B
:104EC0002008202788F3118801A801F001FF84F34E
:104ED0001188B0FA80F127204909FEF709FA002865
:104EE0007FF46AAD9DF80400FEF71AFA013DE8D19F
:104EF00028200C49FEF7D4F900287FF45DAD87F334
:104F00001188716A2920A1F1050CDCF1000141EB47
:104F10000C01054CFEF7ECF900283FF450AD85F389
:104F2000118849E548710008E409002000000000EC
:104F300010B504464121FBF773FD20464221FBF7E3
:104F40006FFD2046BDE810404321FBF769BD00BF5F
:104F500070B51F4B82B09C694FF4A471A2681D4BC1
:104F6000013200941C48FBF753FC1C4B20251860B1
:104F7000FBF7A6FC066B85F311883146FBF7B0FB07
:104F8000002484F31188F0B2FEF7CAF9FBF798FC0D
:104F9000066B85F311883146FBF7A2FB84F3118879
:104FA000F0B2FEF7BDF9FBF78BFC066B85F31188B9
:104FB0003146FBF795FB84F31188F0B2FEF7B0F9A8
:104FC0000749012002B0BDE87040FEF769B900BF93
:104FD000302E0020314F0008A82F0020C00E0020E6
:104FE000B07D00080000000000000000000000008C
:104FF00070B5194B194D9A69194B966882B0721C9D
:10500000009328464FF4A471164BFBF701FC164C95
:10501000164B2060B21C009305F5A4704FF4A471E8
:10502000134BFBF7F5FB134BF21C4FF4A4716060BC
:10503000009305F52470104BFBF7EAFBA06001F02C
:105040005FFD01F05DFDFEF7D3F80C49012002B0D1
:10505000BDE87040FEF724B9302E0020A82F0020B4
:1050600044710008A1500008C00E0020B084000860
:10507000315100084071000881500008B07D0008DF
:1050800038B50546054C2046FBF712FE2878FEF79A
:1050900047F92046BDE83840FBF76ABD54090020B7
:1050A000F8B507461C48FBF703FE1C48FBF700FE5B
:1050B000202383F311881A4DAB699E6B3046FBF7B2
:1050C0002FFD184AAC6910461346226203E0996826
:1050D000A268914202D31B688342F8D15A68072024
:1050E0002360626014605C60FBF7D2FBAB691B6AF3
:1050F000013302D03046FBF773FD002383F31188A0
:105100003878FEF70DF90548FBF732FDBDE8F840A9
:105110000148FBF72DBD00BF5409002064090020A1
:10512000302E00200C0A00200000000000000000CB
:1051300070B506461648FBF7BBFD202383F31188A4
:10514000144B9C69A56B2846FBF7EAFC124A1046F3
:105150001346226203E09968A268914202D31B6859
:105160008342F8D15A6807202360626014605C6053
:10517000FBF78EFB2846FBF733FD002383F31188F2
:105180003078FEF7CDF8BDE870400148FBF7F0BC81
:1051900064090020302E00200C0A002000000000CE
:1051A00030B52C4A2C4B926983B095684FF4A471AA
:1051B0006A1C009329482A4BFBF72AFB294C2A4BEF
:1051C0002060AA1C00934FF4A471254B2748FBF7DD
:1051D0001FFB274B6060EA1C00934FF4A471204B27
:1051E0002448FBF715FB244BA0602A1D00934FF4C5
:1051F000A4711B4B2148FBF70BFB214BE0606A1DA0
:1052000000934FF4A471164B1E48FBF701FB2023BB
:10521000206183F311881C4C2368A34218BF6FF0F0
:10522000010509D01A68184654602260FBF7B0FBEC
:1052300023680562A342F5D1FBF72AFA002383F322
:105240001188FDF7D5FF1149012003B0BDE83040BA
:10525000FEF726B8302E00204C710008A82F002041
:1052600031510008C00E002008830008F0300020F3
:10527000B0840008383200204071000880330020DC
:1052800044710008C83400200C0A0020487100084E
:10529000F0B52C4B2C4E9B692C4D9F682C4983B04C
:1052A0007A1C2B46009130464FF4A471FBF7B0FAFC
:1052B000284C29492060BA1C2B46009106F5A470A1
:1052C0004FF4A471FBF7A4FA24496060FA1C2B4642
:1052D000009106F524704FF4A471FBF799FA204968
:1052E000A0603A1D2B46009106F576704FF4A4712C
:1052F000FBF78EFA1B49E0602B4600917A1D06F5FC
:10530000A4604FF4A471FBF783FA2023206183F398
:10531000118801F00DFC01F00BFC01F009FC01F01B
:1053200007FC01F005FCFBF7B3F9002383F31188B8
:10533000FDF75EFF0C49012003B0BDE8F040FDF72A
:10534000AFBF00BF302E0020A82F00203151000831
:105350004C710008C00E002008830008B0840008CB
:105360004071000844710008487100080000000006
:10537000F8B52B4D2B4CAB6920469E68FBF7C8F85F
:1053800001460120FDF7B4FF00B1F8BD2046FBF750
:10539000BFF880F00101C9B20220FDF7A9FF07465E
:1053A0000028F2D1202383F311882046FBF7B8FBB5
:1053B00087F3118821680320091BB1FA81F149099B
:1053C000FDF796FF0028E0D1A1680420B1FA81F131
:1053D0004909FDF78DFF0028D7D1AB6905209968F1
:1053E000711AB1FA81F14909FDF782FF0028CCD189
:1053F0002046FBF75DFCFBF763FB21680620091BD9
:10540000B1FA81F14909FDF773FF0028BDD1A16808
:105410000720B1FA81F1BDE8F8404909FDF768BFFE
:10542000302E002064090020000000000000000071
:1054300038B50546164C1749FDF70AFCA268284600
:105440001549FDF705FCE26828461449FDF700FC04
:10545000226928461249FDF7FBFBA269284611493B
:10546000FDF7F6FBE26928460F49FDF7F1FB62699B
:1054700028460E49FDF7ECFB226A28460C49FDF749
:10548000E7FB2846626A0B49BDE83840FDF7E0BB00
:1054900028130020307E00084C7E0008587E00084B
:1054A000687E00087C7E0008887E0008A47E0008D4
:1054B000B87E0008D07E0008000000000000000058
:1054C000002903DD0849094AFDF7C2BB202383F305
:1054D00011884FF080435A6A002383F311880449EE
:1054E00092B2FDF7B5BB00BFE87E0008F47E00086D
:1054F000FC7E00080000000000000000000000002A
:10550000002903DD19491A4AFDF7A2BB10B504466C
:1055100082B01849184AFDF79BFB20461749184AE4
:10552000FDF796FB20461749174AFDF791FB2046E9
:105530001649174AFDF78CFB20461649164AFDF717
:1055400087FB20461549164AFDF782FB2046154980
:10555000154AFDF77DFB154B204600931449154A6B
:10556000154BFDF775FB02B010BD00BFE87E0008CB
:10557000047F00080C7F0008E4770008207F000803
:1055800004780008347F00084C780008487F000841
:10559000547800085C7F000860780008707F00087D
:1055A00078780008847F0008A4780008C07F00088D
:1055B000987F0008B07F0008BC7F00080000000052
:1055C0002DE9F041DFF8408182B0002504461068E3
:1055D000164688F8005001F0C3FC364B186070681E
:1055E00001F0BEFC344B00954FF4A47118604122C9
:1055F000324B3348FBF70CF94BE02046FDF728FB14
:1056000030492046FDF724FB2F492046FDF720FBBB
:10561000AB68EE681A462D4920469E1BFDF718FB25
:105620002B49EA682046FDF713FB2A492A692046E0
:10563000FDF70EFB2849AA692046FDF709FB27491B
:10564000EA692046FDF704FB25496A692046FDF713
:10565000FFFA24492A6A2046FDF7FAFA6A6A2249C3
:105660002046FDF7F5FA324620492046FDF7F0FACC
:105670001F492046FDF7ECFA1E49BA682046FDF79F
:10568000E7FA20463A791C49FDF7E2FAC820FBF711
:1056900027FD2368002120465B69984701301749A0
:1056A000174D184FA9D0012388F8003002B0BDE88B
:1056B000F08100BF9C0900208C090020B157000830
:1056C000C0110020D07F0008D87F00084C7E000861
:1056D000587E0008687E00087C7E0008887E0008EE
:1056E000A47E0008B87E0008D07E0008F07F000885
:1056F000847E00080C80000820800008CC7F000811
:1057000028130020B0280020280F002000000000EF
:105710002DE9F0411D4B0746186882B001901C48E6
:10572000FEF7CEF8804648B300221346027003F11C
:10573000610E5FFA8EFEC3EB0316164C464407CC8F
:105740000133C6F80100C6F80510C6F80920218803
:10575000A278DBB27345A6F80D10F27388F800301A
:10576000E9D10199404601F023FB38460A4B0B4929
:105770009A6802B0BDE8F041FDF76ABA38460849B8
:10578000FDF766FA98F80030D1E700BFB070000866
:10579000C02800207409002028130020348000084D
:1057A0004880000800000000000000000000000029
:1057B0002DE9F04F304B31499A6983B02023916134
:1057C00083F311884FF080435F6A0023BFB283F3F5
:1057D00011882B4BDFF8B880186898F800300190DA
:1057E000002B46D1DFF8ACA0DFF8AC90DAF800204F
:1057F0004FF4FA6303FB02F3224A03F5742303F226
:105800003F23A2FB0323204807EB9347FEF758F8FA
:10581000BFB2844608B100230370D9F800B0BBF1D1
:10582000000F1BDD9CF800404FF0000EC4EB041687
:10583000164B664407CBC6F80100C6F80510C6F83B
:1058400009201A8801349B780EF1010EE4B2DE457E
:10585000A6F80D20F3738CF80040E7D1604601995B
:1058600001F0A6FA3846FBF723FC98F80030002B2D
:10587000BCD003B0BDE8F08F302E0020508000086F
:10588000B070000883DE1B43C0280020740900208C
:10589000280F00209C0900208C0900200000000037
:1058A0002DE9F047794B04689B69794A98B0D0F8A4
:1058B0000480784920469A61FDF7CAF908AE0DF1D7
:1058C0005F0720467449FDF7C3F935462368204633
:1058D0005B680DF107010122984770B39DF807102E
:1058E000042926D0082911D07F290FD00D2935D0C1
:1058F0001F29EBD9BD42E9D2236820469B6898470F
:105900009DF80730013505F8013CDFE7B542DDD0F1
:10591000236820469B689847236820469B6820217F
:105920009847236820469B689DF80710013D9847DB
:10593000CCE720465949FDF78BF920465849FDF739
:1059400087F9202383F3118800215648FBF7A0F83C
:105950000020FBF7EDF918B0BDE8F087524920466A
:10596000FDF776F9002302A92B7030461D4601F0A1
:105970008FFA02A9824600200DF10C0901F088FA85
:1059800050B1042D1DD049F8040B02A900200135A7
:1059900001F07EFA0028F4D118AB03EB850343F83D
:1059A000540CBAF1000F8CD050464049FAF758FC1D
:1059B00070B9002DC5D020463D493C4AFDF748F955
:1059C0007FE720463B49FDF743F90023079378E73B
:1059D00050463949FAF744FC30B92046C5B134493C
:1059E000354AFDF735F96CE7344B1868994618B914
:1059F00031E059F8080F70B35146FAF731FC00282E
:105A0000F7D1D9F80430294603AA2046984758E729
:105A10002B49FDF71DF9294B1A681D463AB120465E
:105A20002849FDF715F955F8082F002AF7D1B8F1E4
:105A3000000F0BD0D8F8002042B14546204621493E
:105A4000FDF706F955F8082F002AF7D12046164928
:105A5000FDF7FEF835E7B8F1000F0DD0D8F80000DB
:105A600050B1C14602E059F8080F28B15146FAF783
:105A7000F7FB0028F7D1C4E7524620461249FDF74C
:105A8000E7F820461149FDF7E3F81AE7302E002029
:105A90005C800008648000087C8000088480000826
:105AA000D880000888280020847E0008A080000894
:105AB000E87E000888800008A8800008B809002057
:105AC000B0800008C8800008CC800008D0800008A2
:105AD000CA4C00252DE980484FF0FF372369276124
